:020000040800F2
:1000000000200020B13F0008592B00085B2B00089E
:1000100000000000000000000000000000000000E0
:100020000000000000000000000000005F2B00083E
:100030000000000000000000612B0008632B000896
:1000400001400008E12B0008D12B00080140000806
:10005000014000086B2B00086D2B0008712B000875
:10006000000000000140000801400008B12B00081A
:1000700001400008014000080000000001400008A5
:100080000000000001400008000000000000000027
:100090000140000800000000014000080140000885
:1000A000014000080140000801400008014000082C
:1000B000C12B000801400008000000000000000003
:1000C00010B5064C2378002B07D1054B002B02D02E
:1000D000044800E000BF0123237010BD9001002000
:1000E00000000000BCF10008044B10B5002B03D049
:1000F0000349044800E000BF10BDC04600000000F6
:1001000094010020BCF100080023C25C0133002AE6
:10011000FBD1581E7047000002B4714649084900DF
:10012000095C49008E4402BC7047C04603B4714666
:10013000490840004900095E49008E4403BC7047ED
:1001400003B47146490840004900095A49008E44E9
:1001500003BC7047002243088B4274D303098B42CF
:100160005FD3030A8B4244D3030B8B4228D3030C87
:100170008B420DD3FF22090212BA030C8B4202D329
:100180001212090265D0030B8B4219D300E0090A51
:10019000C30B8B4201D3CB03C01A5241830B8B425A
:1001A00001D38B03C01A5241430B8B4201D34B0343
:1001B000C01A5241030B8B4201D30B03C01A5241A8
:1001C000C30A8B4201D3CB02C01A5241830A8B422D
:1001D00001D38B02C01A5241430A8B4201D34B0216
:1001E000C01A5241030A8B4201D30B02C01A52417A
:1001F000CDD2C3098B4201D3CB01C01A524183092E
:100200008B4201D38B01C01A524143098B4201D367
:100210004B01C01A524103098B4201D30B01C01A92
:100220005241C3088B4201D3CB00C01A524183080C
:100230008B4201D38B00C01A524143088B4201D339
:100240004B00C01A5241411A00D201465241104699
:100250007047FFE701B5002000F0F0F802BDC0468E
:100260000029F7D076E7704703460B437FD400227E
:1002700043088B4274D303098B425FD3030A8B423A
:1002800044D3030B8B4228D3030C8B420DD3FF22A4
:10029000090212BA030C8B4202D31212090265D072
:1002A000030B8B4219D300E0090AC30B8B4201D325
:1002B000CB03C01A5241830B8B4201D38B03C01A6C
:1002C0005241430B8B4201D34B03C01A5241030BE3
:1002D0008B4201D30B03C01A5241C30A8B4201D394
:1002E000CB02C01A5241830A8B4201D38B02C01A3F
:1002F0005241430A8B4201D34B02C01A5241030AB6
:100300008B4201D30B02C01A5241CDD2C3098B429A
:1003100001D3CB01C01A524183098B4201D38B0117
:10032000C01A524143098B4201D34B01C01A5241BA
:1003300003098B4201D30B01C01A5241C3088B42FF
:1003400001D3CB00C01A524183088B4201D38B00EA
:10035000C01A524143088B4201D34B00C01A52418C
:10036000411A00D201465241104670475DE0CA0F63
:1003700000D04942031000D34042534000229C4623
:1003800003098B422DD3030A8B4212D3FC2289012D
:1003900012BA030A8B420CD3890192118B4208D303
:1003A000890192118B4204D389013AD0921100E065
:1003B0008909C3098B4201D3CB01C01A5241830979
:1003C0008B4201D38B01C01A524143098B4201D3A6
:1003D0004B01C01A524103098B4201D30B01C01AD1
:1003E0005241C3088B4201D3CB00C01A524183084B
:1003F0008B4201D38B00C01A5241D9D243088B42A1
:1004000001D34B00C01A5241411A00D20146634643
:1004100052415B10104601D34042002B00D54942A7
:10042000704763465B1000D3404201B5002000F0E6
:1004300005F802BD0029F8D016E770477047C0469E
:100440008446101C62468C46191C634600E0C04678
:100450001FB501F069FA002801D40021C8421FBD70
:1004600010B501F0B3F94042013010BD10B501F0F4
:100470005BFA002801DB002010BD012010BDC04642
:1004800010B501F051FA002801DD002010BD012057
:1004900010BDC04610B501F0D5F9002801DC0020E0
:1004A00010BD012010BDC04610B501F0CBF90028E9
:1004B00001DA002010BD012010BDC046002B11D173
:1004C000002A0FD1002900D1002802D00021C94301
:1004D000081C07B4024802A14018029003BDC046A0
:1004E0005DFFFFFF03B4684601B5029800F04CF8C9
:1004F000019B9E4602B00CBC7047C046F0B5150487
:100500002D0C0F0001002E00C64684460004140C7A
:10051000000C090C46434D43604361434019340CC1
:10052000241800B5A54203D98020400280464144EA
:10053000250C6D18614659437A4330044919240447
:10054000000C2018891880BCB846F0BD70B5002298
:100550000C4B04000D00FFF7A7FF002804D120007A
:10056000290001F0E3FD70BD064B002220002900A8
:1005700001F04AFA01F0DAFD80231B069C46604434
:10058000F1E7C0460000E041F0B557464E4645460B
:10059000DE46E0B504000D009246994683B08B42DA
:1005A00030D82DD04946504601F082FE2900060081
:1005B000200001F07DFE331A9846203B9B4633D441
:1005C0005A465346934042461F00534693401E00EE
:1005D000AF423AD8AF4200D178E05B46A41BBD41A0
:1005E000002B00DA75E00022002300920193012322
:1005F0005A4693400193012342469340009328E0DA
:100600008242CFD900220023009201930C9B002B41
:1006100001D01C605D600098019903B0F0BCBB463E
:10062000B246A946A046F0BD424620239B1A524638
:10063000DA40414613004A468A40170042461F43AB
:10064000534693401E00AF42C4D9002200230092BB
:1006500001934346002BD9D0FB0772081A43464644
:100660007B080EE0AB4201D1A2420CD8A41A9D41F6
:10067000012024196D410021013E24184D41002E16
:1006800006D0AB42EED9013E24196D41002EF8D1BF
:10069000009801995B4600196941002B24DB2B006F
:1006A0005A464446D3402A00E2401C005B461500EF
:1006B000002B2ADB26009E40330026004746BE4022
:1006C0003200801A9941009001919FE7A342BCD863
:1006D00083E74246202300219B1A002200910192C9
:1006E0000122DA40019286E7424620239B1A2A0023
:1006F00046469A402300F340444613432A00E24012
:100700001C005B461500002BD4DA42462F00202344
:10071000260097409B1ADE403B003343CDE7C0469E
:10072000F0B54646D6464F4643025B0ADA00944689
:100730004A02C0B54400560A051CB046240E4E00BD
:1007400092091F0020009246ED0F360EC90FFF2EB2
:1007500000D17FE0012251408D4251D0A21B914631
:10076000002A00DC7EE0002E00D199E0FF2C00D1B1
:100770008CE080235246DB041A4392464A4601230A
:100780001B2A08DC53462021D340891A52468A404E
:10079000511E8A4113436246D31A5A0100D4F3E032
:1007A0009B019E09300001F065FD053886408442BA
:1007B00000DDF7E03200041B20200134E240041B7E
:1007C000A64033005E1EB341002413435A0704D0F1
:1007D0000F221A40042A00D004335A0100D4D6E074
:1007E000621CFE2C00D1DAE09B015F0AD0B2C0058A
:1007F0003843ED072843E0BCBA46B146A846F0BDF1
:10080000A21B9146002A63DD002E00D199E0FF2C47
:100810003CD080235246DB041A4392464A460123C9
:100820001B2A08DC53462021D340891A52468A40AD
:10083000511E8A41134363445A0100D4A4E0013499
:10084000FF2C00D1ABE0012297491A405B080B4016
:100850001343BBE7002A32D08D4235D0FF225242EB
:100860009146A1444A46002A51D0301B002C00D0AA
:100870009CE06346002B00D1DFE00138002800D166
:10088000F7E0FF2E00D099E00D004346002B00D189
:1008900085E08027FF031F437F02FF207F0AA6E732
:1008A0005246002A74D0012252429046C1444A4620
:1008B000002A00D1C8E0FF2C00D05FE7E6E7012264
:1008C0005140A94200D049E7FF2252429146A1443B
:1008D0004A46002A43D0311B002C00D18CE0FF2E69
:1008E00000D192E080236246DB041A439446012340
:1008F0001B2909DC202063466246CB40411A8A400E
:100900001100481E81410B433400534494E7FE22FA
:10091000661C324264D1002C00D082E06346002B7A
:1009200000D1ABE05346002B00D160E7634652464E
:100930009B1A5A0100D4AAE0634652460D00D31A0E
:1009400044E75246002A23D0012252429046C14435
:100950004A46002A75D0FF2C00D05FE796E7FE26B6
:100960000134264253D1002872D16346002B00D1B6
:1009700093E05346002B00D139E7634400245A0129
:1009800002D54A4A013413405A0700D020E7DB0859
:10099000FF2C00D17AE75B025F0AE0B227E7FF2075
:1009A000002724E7414B241A33400FE7FF2E00D1E4
:1009B0006AE780236246DB041A43944601231B281E
:1009C00009DC202463466246C340201A824010009E
:1009D000441EA041034352460D003400D31ADCE606
:1009E000634652469E1A730117D4002E00D0D9E6F2
:1009F000002500200027FAE66346002B44D0013989
:100A000000294CD0FF2E00D071E743463EE7FF2C73
:100A1000C5D0524662445308B6E763460D00D61A65
:100A2000C0E66246002A16D15346002B00D02BE7C1
:100A300080270025FF20FF03D9E60D004346340040
:100A4000A6E753466344F7E6634652469B1AA4E67C
:100A50006246002AD9D05246002A00D116E78022E9
:100A6000D203134200D111E74046104200D00DE7F7
:100A70000AE752460D003400D31A8EE65346002B87
:100A800008D00D004746B2E64346340080E7002B0D
:100A900000D079E700250027A9E64746A7E6534698
:100AA00034006344C8E6C046FFFFFF7DFFFFFFFB45
:100AB00070B5051E0ED001F0DDFB9E2304001B1A4D
:100AC000962B0CDC082801DD083CA5406D026D0A60
:100AD000D8B201E000200025C005284370BD992B45
:100AE00009DD020029001B3291404A1E9141052276
:100AF000121AD5400D43052C01DD621F95402900D7
:100B0000084E31406A0709D00F202840042805D03C
:100B100004314A0102D59F2331401B1B89014D0A34
:100B2000D8B2D9E7FFFFFFFBF0B54F46D6464646A1
:100B30000D0001001800C0B517002B035A0A4B0F17
:100B40001343CA00914602036E004100520AEC0FA3
:100B50007D0F1543760D490DC00F8246AC46FF0050
:100B6000721A844200D198E0002A00DC81E000295A
:100B700000D1B6E0C9498E4200D172E1802128003F
:100B8000090408438446382A00DD5EE11F2A00DD9F
:100B9000EEE1202039006546801A8740D14085402B
:100BA0000D4339004F1EB9416746D7402943DB1B2F
:100BB0004A46551AA945894149425B1A9846434617
:100BC0001B0200D4CCE043465B025B0A98464346D6
:100BD000002B00D12CE1404601F04CFB010008390C
:100BE000202228004346521A8B40D0408D400343B8
:100BF0008E4200DD17E18E1B721C1F2A00DDA7E16B
:100C0000202118002E00891A8D408840D640D340FC
:100C1000691E8D4130439846002605436B0709D075
:100C20000F232B40042B05D02B1DAB42AD416D4251
:100C3000A8441D0043461B0200D494E0974B721C4D
:100C40009A4200D19DE04146954BED0819400B00BA
:100C5000520549075B0229431B0B520D1205134332
:100C6000E407234308001900E0BCBA46B146A84691
:100C7000F0BD002A43D08A1B002E00D02AE14C464A
:100C80001C4300D1D1E1541E012A00D11FE2834D43
:100C9000AA4200D172E2220023E1002A00DC98E09F
:100CA000002942D07D498E4200D1DAE0802128001F
:100CB000090408438446382A00DD29E11F2A00DCA4
:100CC00087E1110065462039CD40202A04D040201C
:100CD0006146821A91400F4339004F1EB9410D43BE
:100CE0001BE12900394300D1B5E0511E012A00D192
:100CF000ABE16A48824200D1B2E10A0043E76949A8
:100D0000751C0D4200D0CFE0002E00D093E1494683
:100D1000194300D1D1E16146394300D0E3E14946AE
:100D20005807C9080143DB0826E02900394300D1F0
:100D300091E0511E012A05D05848824200D18FE12E
:100D40000A00B8E73D004D444D458941634498464B
:100D500049428844434602261B0200D5EBE0013E8F
:100D60006B0700D05CE74346E9085A07114332009D
:100D7000DB084A48824221D01B0352051B0B520D4F
:100D80006CE70023002169E72A003A4369D04A460C
:100D90005807D108DA0880231B0308431A4207D0FA
:100DA0002900ED081D4203D12A00FF0848073843F7
:100DB000430FC1005B07C908194313000A001A4317
:100DC00000D113E28022120313431B03334A1B0B8F
:100DD00044E7002A4BD08A1B002E00D1E7E02F48C1
:100DE000814200D195E1802000040343382A00DDD0
:100DF00043E11F2A00DDDBE120201D004E46801A62
:100E00008540D64035434E4686403000D340461E8E
:100E1000B0419C440543ED19BD429B415B42634494
:100E200098460E007FE01E4A761A13409846F5E673
:100E3000280001F01FFA010018311F2900DCCFE65D
:100E40002B00083883400025D2E662463A43110061
:100E50004F1EB941ACE649465807C9080143DB08B3
:100E600087E749465A07C9081143DB08A6E70D4939
:100E7000701C084200D0BBE0002E00D014E14946AF
:100E8000194300D175E12900394300D07EE149467C
:100E90005807C9080143DB086EE7C046FF0700009A
:100EA000FFFF7FFFFE0700004946CD1B6146581A31
:100EB000A94589414942884601004046091A8846A9
:100EC000090200D5A6E04146294300D07FE6002371
:100ED000002451E7C74CA14200D1C7E0802424047C
:100EE0002343382A54DC1F2A00DDCCE02024484666
:100EF000A41A1D004E46A040D640A5400400D34091
:100F000062463543661EB441D31A9C46254344E0ED
:100F100062463A4315006F1EBD414D444D4589411F
:100F200049428846984443461B0200D418E7B14B17
:100F300001369E4249D04246AF4B01211A40130070
:100F40006A080D401543D9075B0898460D4365E6CE
:100F500018001F3EF040202A03D040218A1A9340F7
:100F60001D43691E8D410023002698460543F7E680
:100F7000110065462039CD40202A04D0402061462A
:100F8000821A91400F4339004F1EB94129430FE6A1
:100F90004A4613431D006B1E9D417D1BAF429B4182
:100FA00062465B42D31A984654460E0007E648460E
:100FB000184300D1B3E0501E012A00D10DE18D4D40
:100FC000AA4200D1A5E0020010E732000023002170
:100FD00044E620213800891A65468F408D40D04074
:100FE000791E8F4105433D436746D740DB1994E79F
:100FF000804A904200D1ECE0390049444945924191
:10100000634452429B18DD0749085B089846060076
:101010000D43A5E64A46BD1AAF42894162464942A0
:10102000D31A5B1A98465446D1E56C07F908214358
:10103000EB0804009DE64A461A4375D161463943E0
:1010400014D1802300241B03BCE64A46D51BA945C6
:101050008941624649429B1A5B1A98460126AEE5D1
:101060004A46D1085A071143DB08A7E66346F90848
:101070005A0754461143DB08A0E64A4613431D00B5
:101080006B1E9D41C7E614001E00203CE640202A4E
:1010900005D04024A21A93404A461A4391464D4631
:1010A0006B1E9D41354378E74A461A4300D06BE6F4
:1010B0006B07F9081943EB0880E66146394354D0C1
:1010C0006346F9085C072143DB08040054E64A46FE
:1010D000BD1AAF42894162464942D31A5B1A98460B
:1010E000040001266BE54A46D51BA94589416246A5
:1010F00049429A1A521A9046120232D54A46BD1AED
:10110000AF42894162464942D31A5B1A98460400AD
:1011100084E56346F9085A071143DB084EE6F908EF
:1011200068070143EB0824E662463A4300D198E69B
:101130004A46D1085A071143DA0880231B031A4292
:1011400008D06046C5081D4204D154462A00F9085B
:10115000430719434B0FC9005B07C9081943130024
:101160002CE64146294300D0FAE500230A0000247A
:1011700002E66B07F9081943EB08FDE56346F90839
:101180005B07194363460400DB0817E63D004D4446
:1011900063444D45894198464942884443461B0271
:1011A00000D4DDE54246144B01261A409046D7E5AF
:1011B00010001E002038C640202A05D04020821A88
:1011C00093404A461A4391464D466B1E9D41354316
:1011D00021E602000023002140E54A46D519BD4220
:1011E00089416344984649428844B3E50021014A55
:1011F0000B0033E5FF070000FFFF7FFFF0B5574608
:101200004E464546DE46E0B5814605000C034800E3
:1012100092461F0085B0240B400DCE0F002859D0F8
:10122000874B984200D198E06B0FE4001C43802369
:101230001B0423439846834BED009B4600239946AD
:10124000834400933C037B005046240B5B0DFF0F4F
:10125000002B67D07A4A934218D07A49420F8C46C5
:10126000E40059461443802263441204CB1A144309
:101270009B46C200002033007B409A464B460F2B12
:1012800000D9EFE070499B00CB589F466F4B524608
:101290009C462243E344002A00D095E049460223BD
:1012A0001943894600240220E5E700230024002595
:1012B00052461B052343D20713432800190005B0EB
:1012C000F0BCBB46B246A946A046F0BD00240025AE
:1012D0005B4BEDE74B462343984600D189E0002C59
:1012E00000D1E0E1200000F0C5FF010002000B3951
:1012F0001D235B1A49461000D940083884400B0072
:101300004D4623439846854051483C03831A9B46EB
:101310000023994600937B005046240B5B0DFF0F82
:10132000002B97D15246224355D0002C00D1CAE160
:10133000200000F09FFF02000B3A1D2301009B1AC2
:1013400052460839DA408C40144352468A40414B99
:1013500058449B46834400208DE74B4623439846E0
:1013600040D108239946063B00258346009369E750
:10137000B246009B022BA9D0032B00D111E2012B16
:1013800093D0354A5A44002A00DC3CE16B0700D078
:10139000A7E1ED084346DB0106D542462F4B1A4034
:1013A00090468022D2005A442D4B9A428EDC43460E
:1013B000520558075C020543240B530D78E7BA46E3
:1013C000A04615000090D4E74A4603231A439146ED
:1013D000032052464FE7494601231943894600241A
:1013E000012048E70C239946093BA0468346009319
:1013F00028E70423994600239B46013300250093E8
:1014000020E7002380249A4600250D4B24034FE754
:10141000802341461B03194208D01C4206D11C43BD
:101420002403BA461500064B240B41E780244346AB
:1014300024031C432403B246014B240B38E7C04667
:10144000FF07000001FCFFFF00F2000801F8FFFFAA
:101450000DFCFFFFF3030000FF030000FFFFFFFE92
:10146000FE070000444500D216E100D111E101233E
:101470005B429C462E0040460025E3442302140EA6
:101480001C431B0C994623041F0C12024946009270
:101490000197FEF7E5FE02007A430B04310C80460B
:1014A00019438A420BD901235B429C460919E04447
:1014B0008C4204D88A4202D9831E98460919881A98
:1014C0004946FEF7CDFE09048C4631046646019A72
:1014D000090C4243030031438A4204D90919013BF4
:1014E0008C4200D811E1891A4246009E12041A4328
:1014F000330C1F00100C9046029313043204160C98
:1015000032001B0C5A4303967B4346437843170C27
:10151000BC469B1963449E4203D980267602B4469A
:1015200060441E0C301816041B04360C9E198142B0
:1015300000D29CE000D197E0AE1B091AB542804171
:101540004042081A844200D111E14946FEF788FE64
:10155000019A0B044243310C050019438A4207D912
:101560000919013D8C4203D88A4201D9851E091907
:10157000881A4946FEF774FE09048C463104664613
:10158000019A090C4243030031438A4207D90919E1
:10159000013B8C4203D88A4201D9831E0919039E5C
:1015A000891A32002D041D43029F2B041B0C5A4341
:1015B0007B439C46280C4643130CB4446344784355
:1015C0009E4203D980267602B44660441E0C120463
:1015D0001B04120C30189B18814206D302D0012341
:1015E0001D43CEE6002B00D1CBE661186E1EA14252
:1015F00000D2A4E0814200D2C9E000D1D9E0350098
:10160000EDE701256D420121891A382900DD4CE6FC
:101610001F2900DC7FE01F235B429A1A4346D34018
:10162000202904D04446654A5A44944025436A1E02
:10163000954107222B43150000241D401A4200D17A
:10164000A1E00F2200241A40042A00D198E01A1DBC
:101650009A429B415B42E4181300220200D48FE0BF
:1016600001230024002523E6B54200D364E7434666
:101670005A1E009B9C4665441F009D429B415B4255
:101680001B19C9188C423AD2884263D860D0904660
:1016900052E7AA4200D9EAE64346DE0758086B083B
:1016A0001E43ED07EAE6484600F0E4FD01000200B3
:1016B000153120321C2900DC1AE64B4608388340DD
:1016C0000025984620E600F0D5FD03001A001532EB
:1016D00020301C2A00DC30E65446083B00229C40A7
:1016E00035E60F232B40042B00D152E605235B4245
:1016F000AB429B4104355B42ED0898444AE68C427C
:10170000C5D1AF42C0D9904616E78A4200D8EAE672
:10171000831E0919E7E62A4A28005A4443469540A1
:101720009340C8406A1E9541444603432B43CC4036
:101730005A0792D00F221A40042A88D18DE735002B
:10174000814200D04BE7009A934200D047E718E669
:10175000AE429CD902235B429C46009BE0449C46DF
:1017600065449D429B415B421B19C918E4E6154A3A
:101770005A44002A00DC44E701230025984409E686
:1017800065076402240BDB081D43002390E5009EDF
:10179000023D7200B242BF417F423C1909190092DA
:1017A000CEE78024434624031C432403064B240B2A
:1017B0007EE5009A9A42EAD33500C4E73E04000071
:1017C0001E040000FF030000FF070000F0B54F46B5
:1017D0004646D646944691461A03120B184DC0B59C
:1017E0004C000F0392465A00060080463F0B012032
:1017F000640DC90F520DDB0FAC420AD0AA4203D0D0
:10180000944201D157450DD0E0BCBA46B146A84636
:10181000F0BD3D003543F7D1A242F5D152466546B1
:101820002A43F1D10120C845EED1994206D0002CBF
:10183000EAD13E433000461EB041E5E70020E3E731
:10184000FF070000F0B54E4645465746DE46040009
:101850001800E0B516001B031B0B324D0F034A00A6
:1018600099464300A446B0463F0B520DC90F5B0D8D
:10187000C00FAA4229D0AB4218D0002A2AD13C433B
:10188000A34665426541002B02D14C46264327D032
:10189000002D15D1814228D002200139084001389D
:1018A000F0BCBB46B246A946A046F0BD4D462E430D
:1018B0002FD1002AEED13C4365426541002DE9D08D
:1018C0000028EDD101204042EAE73D00254320D128
:1018D0009342EBD0002BDDD14C462643DAD1DBE737
:1018E0005B460020002BDBD0D6E79A420ADCE7DB20
:1018F0004F45D1D810D000204F45D1D20029E1D09A
:101900000800CDE7434258410223404218400138C5
:10191000C6E702204042C3E7C445BDD80020C44505
:10192000BED2EBE7FF070000F0B54E4645465746EE
:10193000DE4604001800E0B516001B031B0B314DFA
:101940000F034A0099464300A446B0463F0B520D90
:10195000C90F5B0DC00FAA4211D0AB4214D0002AB0
:101960002FD13C43A34665426541002B14D14C4620
:10197000264311D15B460020002B17D010E03D001C
:10198000254312D193421CD14D462E430DD1002A3E
:1019900004D13C4365426541002D0DD1814216D0F2
:1019A000022001390840013800E00220F0BCBB46AB
:1019B000B246A946A046F0BD0028F7D1012040421A
:1019C000F4E7002BEAD14C462643E7D1E8E79A42F8
:1019D00006DD434258410223404218400138E5E702
:1019E0009A42E9DB4F45DBD806D000204F45DDD2D7
:1019F0000029E3D00800D9E7C445D1D80020C44568
:101A0000D4D2F5E7FF070000F8B557464E464546E5
:101A1000DE460400E0B51F0010000B03620F4E000D
:101A2000CD0F5B0A39031343490AE200440F2143F7
:101A3000C24C91469246C0007A008046760D520D07
:101A4000FF0FA24200D1B4E001246740BB46BD4273
:101A500000D188E0B41AA446002C00DCB2E0002AD1
:101A600000D1C5E0B54A964200D18BE28022120433
:101A700011436246382A00DDA1E11F2A00DD16E28B
:101A800020270C00BF1ABC400200A0466446B840A4
:101A9000E240444614430200501E82416046C14069
:101AA00022435B1A49468C1AA145924152429B1A25
:101AB000984643461B0200D417E143465B025B0A8B
:101AC00098464346002B00D16CE1404600F0D2FB23
:101AD0000200083A202120004346891A9340C8405A
:101AE00094400343964200DD57E1961B711C1F2969
:101AF00000DDCBE1202218002600521A94409040CD
:101B0000CE40CB40621E94413043984600260443A9
:101B1000630709D00F232340042B05D0231DA342C4
:101B2000A4416442A0441C0043461B0200D4DFE0F1
:101B3000824B01369E4200D1FBE04246804BE408D6
:101B40001A401300710552075B0222431B0B490D1B
:101B50000905ED07194329431000F0BCBB46B24606
:101B6000A946A046F8BDB41AA446002C58DD002AA8
:101B700000D19EE0714A964200D13BE180221204DE
:101B800011436246382A00DDC1E01F2A00DCBBE1B8
:101B90000C00203AD44022006446202C04D0402778
:101BA0003F1BB940084380464446611E8C411443A4
:101BB000B1E00C0004432AD0BB46BD422DD0614C9D
:101BC000A446B4446446002C5CD0941BA446002E6A
:101BD00000D015E14D461D4300D1C3E1651E012C27
:101BE00000D10CE2554EB44200D1F8E1AC460EE112
:101BF0000A00024300D136E12200013A012C00D153
:101C0000C6E14E4CA44500D1F4E0944631E70124EE
:101C10006740BB46BD4200D01CE74A4CA446B444D2
:101C20006446002C00D1CFE0941BA446002E00D1C6
:101C30005CE1424EB24200D1ECE1802636043343EF
:101C40006446382C00DDB3E11F2C00DD38E220268D
:101C5000361B1C00B4404F46A0466446E74044464D
:101C60003C434F46B7403E00771EBE413443664674
:101C7000F340C918241884429B415B4298461600E1
:101C800088444EE0304A741C144200D0D6E04A46E4
:101C90001A43002E00D05BE1002A00D1A5E10A0022
:101CA000024300D0BBE14A465907D2080A43DB0889
:101CB00027E00A00024300D174E12200013A012C1E
:101CC00005D01E4CA44500D194E0944659E7484401
:101CD000484592415B18984604005242904443465E
:101CE00002261B0200D5C4E0013E630700D011E7C5
:101CF0004346B4465907E2080A43DB080F498C45BE
:101D000040D061461B0349051B0B490D20E70143E9
:101D10000C00611E8C414C444C459241524290460D
:101D2000984443461B02E0D5044B01369E4200D046
:101D30009FE03100002300220AE7C046FF070000B1
:101D4000FFFF7FFF01F8FFFFFE070000002A00D120
:101D500060E10A0002434DD04A465C07D2082243A4
:101D60008024DB082403234207D0CE08264204D176
:101D70005D463300C20849070A43510FD200D2081A
:101D800049070A431100194300D1C8E18021090322
:101D90000B431B03D5491B0BDAE6D549B61A0B409A
:101DA0009846B5E6200000F065FA020018321F2AB6
:101DB00000DC8FE6230008388340002492E60843C5
:101DC0000200501E82416DE6CA4C721C224200D0B5
:101DD000ADE04A461A43002EB8D1002A00D158E19E
:101DE0000A00024300D059E14A465907D2080A4383
:101DF000DB0886E74A465907D2080A43DB08C1E7F1
:101E0000BA4DAA4200D11EE180252D042B43644621
:101E1000382C5DDC1F2C00DDD0E0202567462D1B13
:101E20004E461C00FE40AC4034434E46AE403500AA
:101E3000FB406E1EB541C91A2C434EE04A46141AA7
:101E4000A1459241524290465F1A3A004746D21B42
:101E50009046120200D58BE04246224300D030E685
:101E6000002300254DE74A465907D2080A43DB08FC
:101E700044E742469E4B61081A4013000122144079
:101E80000C43DA075B089846144341E61A001F3EEC
:101E9000F2401600202903D04022511A8B401C43E7
:101EA000621E944100233443984600261DE70C002F
:101EB000203AD44022006446202C04D040273F1B07
:101EC000B940084380464446611E8C412243E9E5FF
:101ED0004C4623431C00631E9C41041BA0429B41B3
:101EE0005B42CB1A98465D461600E2E54E461E431D
:101EF00000D1AEE0661E012C00D1FDE07B4FBC425C
:101F000000D107E1B4469BE664462022121B0C0078
:101F1000944007009040A0466446421E90416246AD
:101F2000E7404446D1403C4304435B18F3E66F4C22
:101F3000A24200D1D5E048445B1848458941494256
:101F40005B18DC0740085B08984616000443CCE6A3
:101F5000002A00D082E00A00024340D180230025FD
:101F60001B0313E74B07C2081A435D46CB08C5E6BF
:101F70004A46841AA0429241CB1A52429B1A984672
:101F80005D469EE54A465907D2080A43DB08F9E652
:101F90004A46141AA14592415B1A52429B1A98462E
:101FA000012686E54A465907D2080A43DB08A5E61A
:101FB0004C4623431C00631E9C415BE665461E00A5
:101FC000203DEE40202C05D040252D1BAB404C463B
:101FD0001C43A2465446631E9C4134437DE74B0795
:101FE000C2081A435D46CB08CCE60A00024300D182
:101FF00036E74B07C2081A435D46CB0881E64A46DE
:10200000841AA0429241CB1A52429B1A98465D46CE
:1020100001264EE54B07C2081A43CB08B2E64A46F2
:10202000141AA14592415F1A5242BA1A90461202FE
:102030006BD54A46841AA0429241CB1A52429B1A4F
:1020400098465D4664E54B07C2081A435D46CB08D7
:1020500098E64B07C2081A43CB084FE60A00024332
:1020600090D04A465C07D20814438022DB08120352
:10207000134208D0CE08164205D1C00849070843CC
:1020800004005D463300610FE2004907D2080A43AD
:1020900078E64B07C2081A43CB0832E648445B187F
:1020A00048459241984652429044434604001B02E0
:1020B00000D41AE642460E4B01261A40904614E61A
:1020C00066461F00203EF740202C05D04026361BD8
:1020D000B3404C461C43A2465446631E9C413C43BD
:1020E000C8E511000023002232E5C046FF070000CA
:1020F000FFFF7FFFFE0700004A461418844292410A
:102100005B18984652429044E9E54246224300D18A
:10211000A6E6EAE54B07C2081A43CB0832E60022DE
:102120000149130014E5C046FF0700000A0030B55E
:10213000134C530009030500090B00205B0DD20F5F
:10214000A34204DD0F48834202DD0F4BD01830BD9F
:102150008020400301430D48C01A1F2808DD0C48A9
:10216000C31AD9400B005842002AF0D11800EEE7FC
:10217000084CC540A446634499400B002B43F2E74A
:10218000FE0300001D040000FFFFFF7F330400007A
:1021900013040000EDFBFFFF10B5041E10D000F08B
:1021A00069F80F4B1B1A0A2811DC0B222100121AA6
:1021B000D14015300A035B058440120B5B0D01E032
:1021C000002300221B0513432000190010BD22002C
:1021D0000B3882405B0512030024120B5B0DF1E704
:1021E0001E04000070B543004602C40FFE201B0E03
:1021F000591C750A08420CD0E022920094466D07E3
:10220000360B63441B053343E407234328001900BE
:1022100070BD002B14D1002D1BD0280000F02AF82F
:102220000A281CDC0B232A001B1ADA400300153392
:102230009D400E4B12031B1A5B05160B5B0DE1E76D
:10224000002D09D0320B80263603094B6D0716434B
:10225000D8E700230026D5E70026054BD2E7030088
:102260002A000B3B9A400025E3E7C04689030000A3
:10227000FF0700001C2101231B04984201D3000C1E
:1022800010391B0A984201D3000A08391B099842E9
:1022900001D30009043902A2105C40187047C046FF
:1022A000040302020101010100000000000000001F
:1022B00010B5002903D1FFF7DDFF203002E0081C34
:1022C000FFF7D8FF10BDC0460721012210B5134CFF
:1022D0000023A163124962632261033221606261BB
:1022E0008021220009062C3220002384E363A362AC
:1022F0006160A360E360A361E361137002F0C8F85A
:10230000002801D000F03AF90021200002F0EEFA96
:10231000002801D000F032F910BDC046241400207E
:1023200000240140054B02689A4205D18023044AEB
:102330009B00516B0B4353637047C0460024014020
:1023400000100240084B02689A420CD18022074BD1
:102350009200596A06480A435A62596A0140596212
:102360005A6B02405A63704700240140001002403B
:10237000FFFDFFFF014B024A1A6070472414002042
:102380000024014073B508220021060068460CF0C5
:1023900082FEFFF799FF08231F494A681A42FCD0C2
:1023A00080231E4D1E4C6A6B9B00134300216B6300
:1023B000200002F09BFA1B4B694600931A4B200049
:1023C000019302F03FFA802369465B0120000096EA
:1023D000019302F037FA002801D000F0CFF8200076
:1023E00002F084F9002801D000F0C8F80121200093
:1023F000494202F0C5F9200002F0A4F9200002F0E1
:102400001DFA0600200002F01DF96B6B074A300030
:1024100013406B6376BDC046007000400010024060
:1024200024140020FFFF070001100000FFFDFFFF44
:1024300010B50848FFF7A6FF01000020814208D030
:10244000054B06481B8843434808C018FDF782FE29
:1024500080B210BD000002447800F81FB80B0000E5
:1024600007B50120084A116B01431163136B002269
:102470000340110001930A30019B02F087FA0B2000
:1024800002F0AEFA07BDC0460010024010B592B08F
:102490001C22002107A80CF0FEFD14220021684632
:1024A0000CF0F9FD002306930F9380231B03109378
:1024B00080230222012110241B0405A80592089103
:1024C00009940E92119303F009FB002800D0FEE757
:1024D0008023124A5B05916B0B439363104B1149A8
:1024E0001A681140802212010A431A6059680A00D2
:1024F00022402142FAD10F2300930C3B0193E023A9
:102500000121DB00684602920393049203F02EFD42
:10251000002800D0FEE712B010BDC04600100240F7
:1025200000700040FFE7FFFF10B501F0D3FEFFF79A
:10253000ADFF104C104B200023600023236181333A
:10254000FF336360023BFF3BA360E36005F074F977
:1025500005F08CF901F0B2FA05F08CF901F0A6F95A
:10256000012803D101F0DEF901F0A6F9200005F001
:1025700078F9F1E7C8140020002C0040FEE70000C5
:1025800030B5002491B01422002101A80CF083FD85
:102590002822210006A800940CF07DFD244D254B37
:1025A00028002B601F23AB60234B6C60EB602C6119
:1025B0006C61AC61EC6103F053FFA04201D0FFF706
:1025C000DDFF6B46002228009C8001A99C710494C9
:1025D000059403F0ADFF002801D0FFF7CFFF174BA4
:1025E000002269462800009304F028F8002801D052
:1025F000FFF7C4FF00226B461A839A76A0231B05BF
:102600000C9319231E216B44D977802328005B008B
:1026100006A9079209920A920B920D920F9304F069
:1026200079F8002801D0FFF7A9FF11B030BDC046EE
:10263000DC14002000280040FF030000010101001D
:1026400010B504008EB03422002101A80CF023FD47
:10265000114B22689A421CD104230193FC3303934B
:10266000002301A8069302930A9303F037FA002887
:1026700001D0FFF783FF8023084ADB02116D02209F
:102680000B4313650022110002F080F9022002F0D2
:10269000A7F90EB010BDC04600280040001002404F
:1026A000014B18687047C046D801002003207047CE
:1026B00010B5410E7D220023C001FDF7FFFE10BDC5
:1026C00010B57D2200230021FDF718FF4906C0093F
:1026D000084310BD0648074B016810B5CA68D2B25E
:1026E0001343CB608021490003F0F2FD002010BDB0
:1026F000DC1400207FFEFFFFF7B5254E0500002209
:1027000030000C0004F0E6F8224F0022BB6A2900DA
:102710003000019304F008F900222100300004F099
:10272000D9F86B46BA6A9B8892B29A42ECD10321DF
:10273000EA78194E6F7856430A4053425341174A7C
:102740005B421340164A013F9B183D227A437F00AB
:10275000FB400132D00F8218A87803360138B60842
:102760005210861996190F480B40F31A4343E12083
:102770002278000150433C2261784A438018A278B5
:102780008018C01863688002C01A074BC018FEBDCD
:10279000DC14002000280040B5050000B0AAAAFF04
:1027A000A0AA990080510100FF03000010B5044C5D
:1027B0002000211D1830FFF79FFF206010BDC0468C
:1027C000D80100207FB5684601A9FFF795FF024BAD
:1027D0001B68C01A07B000BDD8010020F0B587B053
:1027E0000600FFF7EFFF0021301A032800D801216F
:1027F00002200BF03BFE0BF065FE3D4B5A799F68C3
:1028000000929A799C7E0192DA791D7902925A7E21
:10281000DB7E03920493FFF75DFF364AB305D71BB7
:102820009B0DFB180592344A9BB2B60AA0B29642A1
:102830003FD8E122ADB2120196423FD26A461788D4
:102840003B2E40D89A0A94021C1B019BA4B2D218BA
:102850009619B6B23B2E3AD83B2F3DD8172D40D80B
:10286000039B049A013B920740D1244AD15C8842E1
:1028700002D9FDF7DFFD88B2059B21491C1BA0236F
:102880001B058B614B1CD877029B4C60CB700024DE
:10289000802322005B001B488E704F700D70CC614E
:1028A0004C614B62CC600C6103F034FF200007B038
:1028B000F0BD15490130761880B2B8E713490135EB
:1028C0007618ADB2B8E701373C3EBFB2B8E73C3E40
:1028D0000137B6B2BFB2BDE73C3F0135BFB2ADB2C2
:1028E000BAE7183D0130ADB280B2B7E7084ABDE79C
:1028F000D8010020FF0300007F5101004CF20008C6
:10290000AC010020DC14002080AEFEFFF0F1FFFFE0
:1029100040F2000830B587B0050001A96846FFF70E
:10292000EBFE040080057D2200230021800DFDF7D1
:10293000E5FDC0092880A00A07B030BD10B502002F
:102940000021024804F012F810BDC046DC1400203B
:1029500010B502000121024804F008F810BDC0467D
:10296000DC14002010B50021014804F005F810BD6A
:10297000DC14002010B50121014803F0FDFF10BD5B
:10298000DC14002030B5114C89B02378002B19D10C
:1029900020330193802301A85B02029303F0D4FB50
:1029A000002800D0FEE7FFF7EBFD8021084D49002D
:1029B000280003F08DFC280003F0E4FFFFF7F6FE8B
:1029C00001232370002009B030BDC046D40100208F
:1029D000DC1400207FB50020044B1B78834203D019
:1029E000684601A9FFF788FE07B000BDD4010020AA
:1029F00070B57D220023410EC001FDF75FFD04008C
:102A0000FFF7E8FF0500FFF7E5FF401BA04200D3FA
:102A100070BDC046F7E710B50CF05EF910BD704709
:102A200010B5EFF3108472B601F078FB0423054A69
:102A300011680B43136084F310880121080002F031
:102A4000B9FF10BD0070004010B5EFF3108472B6EE
:102A50000122104B19680A431A60042219681142B6
:102A6000FCD08022196852040A431A608022920422
:102A700019681142FCD00322D9680A430C21DA609C
:102A8000DA680A400C2AFBD101F0BCFA84F3108802
:102A900010BDC0460010024010B50121002002F018
:102AA00051FF10BD704770478023094A5B05916B49
:102AB00010B50B43936302F03DFF02F0BDFF082306
:102AC000044A11680B43136002F0ACFF10BDC0460E
:102AD0000010024000200240054B02689A4205D1D6
:102AE0008023044A1B01916B0B4393637047C046DC
:102AF000002C00400010024010B5040086B01422E3
:102B0000002101A80CF0C7FA104B22689A421AD192
:102B100002210F4C0F48E26A0A43E262E36A032291
:102B20000B400093009BC0230193AE3B029301A98D
:102B3000113B03930492059302F076FA8023A26B73
:102B40009B031343A36306B010BDC046005400406E
:102B500000100240000400507047C046FDE7704777
:102B6000704710B501F0CAFB10BD704770470000F8
:102B700010B5094802F0F4F8084802F0F1F80848E6
:102B800002F0EEF8074802F0EBF8074802F0E8F828
:102B9000064802F0E5F810BD30170020541500205B
:102BA000441500204C1500203C1500203415002051
:102BB00010B5024BD86E02F028F810BD5C1600204C
:102BC00010B5024804F0AAF910BDC0465C160020FA
:102BD00010B5024803F0DEFB10BDC046DC14002037
:102BE00010B502F011FF10BD0CB407B5102105ABF4
:102BF000034A01930BF04CFD03B008BC02B0184728
:102C0000B0F200087FB5040002AE30000D000BF0FA
:102C100001FD0422B35E10212000054A0093029BAF
:102C2000FFF7E2FF2000FDF76FFA28807FBDC04666
:102C3000B0F20008F0B50125022704268BB00BF096
:102C400013FF0822002108A80CF025FA80222C4C42
:102C5000A020E36A05A92B43E362E36AC0052B4089
:102C60000193019BE36A3B43E362E36A3B400293C7
:102C7000029BE36A3343E362E36A33400393039BBB
:102C8000E36A1343E362E36A13400493049B032360
:102C90000693002307931B4B059302F0C5F91A4BCB
:102CA00005A91A48059302F0BFF905A9184802F0D2
:102CB000BBF905A9174802F0B7F98022E36AAB43D4
:102CC000E362E36ABB43E362E36AB343E362E36A5A
:102CD0009343E3620CF092F80F480CF0B1F828002F
:102CE0000CF0B4F8FFF746FB01F0CAFA01F08AF9DC
:102CF0000BF0B2FB290028000BF0CEFB0BB0F0BDAF
:102D000000100240FF9F0000FFFF00000004005081
:102D100000080050001C0050052C000810B50BF0F6
:102D2000E5FB10BD13B5FFF783FB6421FDF712FA35
:102D3000C4B201220021034B009402200CF0CEF813
:102D4000200016BDB9F200080020704770B5041EBF
:102D500016D001F0DFFA050001F0E2FA01F0E6FA20
:102D60002B0E23702B0C63702B0AA370054BE570A0
:102D70001B681A0E22711A0C62711A0AA271E37191
:102D800070BDC04600150020014B18607047C0465A
:102D900000150020014B18687047C0460015002040
:102DA00010B5012104200BF061FB10BD10B500210E
:102DB00004200BF05BFB10BD0020704710B5FFF73F
:102DC00009FE10BD07B501900198FFF711FE07BD80
:102DD00010B5024B9B6A984710BDC0465CFD0008C9
:102DE00010B5024B9B6A984710BDC0465CFD0008B9
:102DF00010B5FFF7F5FF10BD0022014B9A71704727
:102E0000380000207047000010B50321014801F090
:102E1000B9FF10BD54150020012210B5034B03214A
:102E200003481A6001F0AEFF10BDC0461003002039
:102E30003C150020012210B510000021044B0CF0BD
:102E40004DF8044B9B6A98470022034B9A7110BDC2
:102E5000C4F200085CFD000838000020032307B519
:102E60000022CB56012000931100024B0CF036F8E3
:102E700007BDC046D2F2000810B5002101200BF0BA
:102E800035FD10BD37B501220F4B002110000CF0AD
:102E900025F80E4C0E4D638801339BB26380002BE6
:102EA00005D0AB6A019398470023A37137BDEB6847
:102EB000084801939847084B084819886B6A0239FB
:102EC000C9B201939847F1E7F0F2000838000020FA
:102ED0005CFD0008C0CA8936360000205E1500205F
:102EE00007B5002106480B0001AA019105F0B8FCC6
:102EF000011E04D10122034B10000BF0EFFF07BDB0
:102F000000000020FBF20008F0B5FA271726012484
:102F1000050087B06E447F0023002A223C210297DF
:102F20000194009602F024FC33782A22A3433370E4
:102F30003C212300280002970194009602F03AFBFE
:102F400007B0F0BDF0B5FA2717260124050087B0B9
:102F50006E447F0023002A223C21029701940096B0
:102F600002F006FC33782A22234333703C212300ED
:102F7000280002970194009602F01CFB07B0F0BDF8
:102F8000F0B51726FA2701254023040087B06E44C8
:102F90007F0033702B222B003C2102970195009675
:102FA00002F008FB2B005C223C21200002970195D7
:102FB000009602F0FFFA07B0F0BD0000F0B5564FE2
:102FC00089B0060038000591FFF7DAFFFA231624CE
:102FD00001255B00029302ABE4180D222B003C217B
:102FE00038000195009402F0C3FB23782800C72B1A
:102FF00000D08FE017243800FFF786FF2800FFF786
:10300000E1FE02ABE418FA233612F6B25B0026703A
:1030100054223C21029338002B000195009402F0C9
:10302000C9FAFA235B002670552202933C212B003B
:1030300038000195009402F0BDFA059ACF23062AC4
:1030400000D0403BFA270125334E7F0023705222E7
:103050002B003C21300002970195009402F0AAFA5F
:1030600025702B005A223C213000029701950094D4
:1030700002F0A0FA25702B005B223C213000029761
:103080000195009402F096FA00232C2223703C2133
:103090002B00300002970195009402F08BFA042374
:1030A0002B2223703C212B003000029701950094C5
:1030B00002F080FA0323292223703C212B003000E8
:1030C00002970195009402F075FA80232D22237057
:1030D0003C212B00300002970195009402F06AFA1F
:1030E00080232E2223703C212B0030000297019573
:1030F000009402F05FFAA9232A2223703C212B00BE
:10310000300002970195009402F054FA3000FFF766
:1031100019FF002009B0F0BD14030020F0B5FA2714
:1031200017260125484C8BB02000FFF729FF6E447D
:1031300020007F00FFF7E8FE2B000D223C2120003D
:1031400002970195009602F013FB3378C72B43D00A
:103150002000FFF715FF2000FFF7D6FE2000FFF745
:10316000F1FE0A2600270120FFF72CFEFA235B0060
:103170000293E83B06ADFF3B00223C210193200077
:103180000C3B009502F0F4FAEA792B7A1202134311
:103190002E4A1BB21380687AA97A0002014351803B
:1031A000E87A297B000201439180BB4200DDFF18D1
:1031B000013E002ED7D10A213800FDF755F8F53031
:1031C000FF300400009032003100214B01200BF051
:1031D00085FE20000BB0F0BD002306AE33702A221E
:1031E0002B003C21200002970195009602F0E2F9A5
:1031F0001F235B2233703C212B0020000297019596
:10320000009602F0D7F920235C2233703C212B007A
:10321000200002970195009602F0CCF935702B0042
:103220000E223C21200002970195009602F0C2F97F
:103230000D232A2233703C212B0020000297019598
:10324000009602F0B7F989E714030020E602002097
:103250000AF300080B4B30B51A0001249D69254282
:10326000FCD15D68254203D0074CDC60074CDC6074
:103270000123086091691942FCD151680B435360E6
:1032800030BDC04600200240EFCDAB8905040302EB
:10329000F0B51C4B8DB09C79002C31D101251A481A
:1032A0009D711A4B1A4F03601A4B83601A4B43608F
:1032B0001A4BC3601A4B03613B680B939847194B39
:1032C000220008930823029304330093BB6916215C
:1032D0000B93280023000B9E0794069405940495F5
:1032E00003940195B047BB6C402128000B9398478D
:1032F0000D4B2A00210028000BF0F0FD014B9C71C2
:103300000DB0F0BD38000020EC020020852E000832
:103310005CFD0008D12D0008352E0008E12D0008C5
:10332000F12D0008881300001CF3000870B50C4D47
:10333000AE79002E13D10124AC7104F0A1FA094832
:1033400005F01CFB084805F023F9200005F03CFAC5
:10335000220031002000054B0BF0C0FDAE7170BDA6
:1033600038000020100000203000002027F3000863
:1033700030B58DB0032900D886E00378242B00D027
:1033800082E04378572B7FD1C378232B7CD141181F
:1033900001390B78002B77D08378412B49D16A4AC9
:1033A000011D14000C300B781D00613D052D03D864
:1033B000573B1B01D37203E0303BDBB2092BF8D93A
:1033C0004B781D00613D052D2BD8D57A5B19573BF5
:1033D000D3720231013A8842E5D15C49A068FFF717
:1033E00039FFA0680AACFFF7CFFCFFF79FFF200072
:1033F00005F0CEFBE3790793A379069363790593F0
:1034000023790493E3780393A37802936378019379
:10341000237800934E4B0022012011000BF05EFD3B
:1034200032E01D00303D092DD3D8D57A5B19303BF1
:10343000CEE7522B2AD101200AF088FC424C4548A5
:10344000A17B0AF073FEA17B43480AF06FFE434B59
:103450003C225D6B16214248A84701200AF076FC09
:10346000A17B3C480AF062FEA17B3B480AF05EFE6D
:103470003C2216213A48A847A37B0093394B0022EF
:10348000012011000BF02AFD0DB030BD532B00D1EF
:10349000FEE72B2B1ED12C4CA07B2E2816D80130FA
:1034A000C0B2A0730AF0F4FB01200AF04FFCA17B2C
:1034B00028480AF03BFEA17B27480AF037FE274B3D
:1034C0003C225B6B1621264809939847A37B009307
:1034D000254BD4E72D2B05D11B4CA07B0028F5D024
:1034E0000138DDE7452BCFD03E2B09D1164CA37B0D
:1034F0002E2BEBD82F202A2BD3D80533D8B2D0E7E8
:103500003C2B08D1104CA37B002BDFD00020042BD8
:10351000C7D9053BF2E74E2BB6D10AAC200005F027
:1035200037FBE3790793A3790693637905932379AE
:103530000493E3780393A378029363780193237849
:1035400000930A4B67E7C0463800002000000808D7
:1035500036F3000811090000120900005CFD0008A4
:10356000C0FF953661F300086FF3000822FA0008E7
:10357000052310B503700400FEF75AFF64213230B2
:10358000FCF772FE0023A370FF33E370084B6070FA
:1035900002215A5E092011126271217104229B5E80
:1035A0001A12E371034BA2711B68237210BDC0464F
:1035B000E60200206803002070B5002505700400B5
:1035C000FEF736FF64213230FCF74EFEFF23E37036
:1035D000084B6070A57002215A5E092011126271B9
:1035E000217104229B5E1A12E371034BA2711B68C6
:1035F000237270BDE60200206803002030B58025EC
:10360000002387B06D0004000195049398420FD108
:103610000200A0202900C00501F040FEA0200223E6
:1036200001A9C0050294039301F0FEFC07B030BD70
:10363000A020012201A9C0050292039301F0F4FC2D
:10364000A02022002900C00501F028FEEEE70000BE
:1036500070B52B4C6379012B21D0022B32D0294D30
:10366000002B41D12A780133100018401A4200D0B3
:103670001800FFF7C3FF2B78002B0BD0013B2B70FA
:10368000E37B64212048012B01D1FA2149000BF092
:10369000EDFA70BD0A232B7003236371F9E71B4D0C
:1036A0002A78100018401A4200D01800FFF7A6FF31
:1036B0002B78002B04D06421013B2B701248E6E7E5
:1036C0001223E8E7124D01232A78100018401A420D
:1036D00000D01800FFF792FF2B78002BDCD0FA21E6
:1036E000013B2B708900E9E70A23122200202B708E
:1036F000064B1A70064B1870FFF780FFCCE7C046E8
:103700003800002049000020041500204800002057
:103710000803002070B50400022818D80F4E7379F2
:10372000032B14D10120FFF769FF0D4D74712800A0
:103730000BF006FA6421012C06D0022C0AD0F37B90
:10374000012B05D1FA21490028000BF08FFA70BD3A
:103750000449F9E7FA21C900F6E7C046380000201D
:103760000415002070170000F0B52F4D8FB00890A1
:10377000AF79002F2ED101260BAC2000AE7105F0E1
:1037800007FAE3793A000793A3793900069363793E
:103790003000059323790493E3780393A37802938D
:1037A0006378019323780093204B0BF097FB38004C
:1037B000FFF7B0FFEB7B002B11D11D4C089B60681D
:1037C0002670002B08D1FFF7D3FE60700021022085
:1037D0000BF08CF80FB0F0BDFFF7EEFEF5E7012B14
:1037E000F8D1144E1448F36809939847134805F02C
:1037F000CFF90823124C13482380089B002B10D1CB
:10380000FFF7B6FE2388C0182080089B21882B7103
:103810000239736A0C48C9B20893984700236B8039
:10382000D8E7FFF7C9FEEDE7380000207FF3000876
:10383000000000205CFD0008C0CA89365C1500202D
:1038400036000020641500205E15002013B5144CCE
:1038500023885A1E032A0BD8124A01201368013B01
:10386000591E8B411360FFF77FFF0023238013BD98
:10387000042BFAD9E07B01280BD001230220E3734B
:10388000FFF748FFFFF704FD074B9B6A019398473A
:10389000EBE70023E373FFF73DFFFFF747FDE4E7A6
:1038A00038000020680300205CFD0008014B186808
:1038B0007047C046100300200022014B1A60704779
:1038C00010030020FA2330B5172587B05B000B4C9E
:1038D0000293F43BFF3B6D4401930B223C212000FB
:1038E000009501F045FF2B78022B05D02000FFF753
:1038F00047FB0348FFF766FA07B030BD140300200A
:103900001027000010B5064A1378002B02D10533AA
:10391000137010BD013B1370FFF7D4FFF9E7C046E9
:103920004A000020F0B5FA261627012487B03A4D48
:103930006F44760023005E223C2128000296019409
:10394000009701F015FF3B785B071FD50022334B32
:10395000110020000BF0C2FA17236B44532200938E
:103960003C21230028000296019401F001FF2C4A1B
:1039700013881B1913802B4B1A68002A45D1072086
:103980001C60FFF7CBFB0721FFF718FBFA26162771
:1039900001246F44760023000C223C21280002966B
:1039A0000194009701F0E4FE3B787F2B22D9029628
:1039B000DE3EFF3E6E4423000B223C212800019492
:1039C000009601F0D5FE00223378110001933B7878
:1039D00020000093144B0BF081FA3378022B02D0B5
:1039E0001248FFF7EFF9124C20000BF0A9F8200065
:1039F0000BF0FAF800220A4B11001B8801200093FB
:103A00000C4B0BF06BFA07B0F0BD002206201A60D9
:103A1000FFF784FB0621B7E714030020A5F3000895
:103A2000380000200C030020BBF300081027000022
:103A300044150020F5F300080123F0B585B001938B
:103A4000DB1805000293EFF3108772B60024174EBF
:103A5000174B694630000093039401F021F92100CF
:103A60002A68300001F06EF922002100072000F0E2
:103A70008DFF072000F0B4FF0E4B0F4E0093012383
:103A800069463000039301F00BF921006A683000A9
:103A900001F058F922002100072000F077FF0720ED
:103AA00000F09EFF87F3108805B0F0BD34150020AC
:103AB0000D000006060000063C150020F0B50024AD
:103AC0006F4B95B0210001206E4A1C600AF0BCFFCC
:103AD00021006D4A02200AF0B7FF6C4E6C4D33682E
:103AE0003068AB607368EB60FFF74EF9694B1420E8
:103AF000EB600AF0CDF868480BF09AF9FFF716FC76
:103B00000C2221000CA80BF0C6FA08230BA80B937B
:103B100001F000FA6148FFF78FFF1022210010A882
:103B20000BF0B9FA8023A0209B010FA9C0050F93C9
:103B300001F07AFAEB7B012B01D1FFF7A9FB0223FD
:103B40000125574812930FA93E330F93119501F0A9
:103B50006BFA8023A020002420275B000FA9C0055A
:103B60000F9310951194129401F05EFA0FA94C482E
:103B70000F9701F059FA2000FFF740FD39002A00A5
:103B8000474801F08BFB0121464F2A003800464B85
:103B9000494200940AF074FF3D4B38009989FA239A
:103BA0009B0059430BF07CF838000BF01DF8012105
:103BB0003E4F22003E4B3800494200940AF060FF1D
:103BC000FA21380089000BF06BF8012109AF2200BF
:103BD000384B4942384800940AF052FF380004F04C
:103BE000D7FFFB7922000793BB79210006937B79ED
:103BF000280005933B790493FB780393BB780293E9
:103C00007B7801933B7800932C4B0BF067F93300E2
:103C10002B4F083322002100009328003B000F3671
:103C20000BF05CF93B0022002100280000960BF00D
:103C300055F92448244B84600360244BC5604360DD
:103C400004614461C461046201F05EFCA04201D0E1
:103C5000FEF794FC0620FFF761FA0621FFF7AEF9A4
:103C600000220400009011000120194B0BF036F9DE
:103C7000002C02D01748FFF7A5F815B0F0BDC046DC
:103C800010030020E5860008E12E00080000080867
:103C9000380000203C0014007133000808000020A8
:103CA000000400501C1500200539000844150020B0
:103CB0004D38000851360008041500207FF3000835
:103CC0000BF400081403002000540040EC9C9010FA
:103CD00010F40008102700000A480B4B10B50360D1
:103CE00096239B010C224360002342618360C360E2
:103CF0000361836103F09AFC002801D0FEF73EFCCB
:103D000010BDC0465C16002000440040F0B5040021
:103D100091B01422002104A80BF0BDF91C2200214F
:103D200009A80BF0B8F9444B22689A4200D081E010
:103D30000122424BD96A1143D962D96A11400191DB
:103D40000199D96A1143D962D96A11400291029945
:103D50008021986B890208439863186B104318639D
:103D6000186B02400392039A9A6B09A81143996356
:103D70000223099306330C9302F0E6F9002801D0E0
:103D8000FEF7FCFBA020002504260227032304A93C
:103D9000C0050597079304960695089601F044F927
:103DA0000823A0200493073B0693C005DB1904A950
:103DB00005970793089601F037F9214F214B3800FA
:103DC0003B601023BB6070337E60FD603B617D61B2
:103DD000BD61FD613D6200F01FFEA84201D0FEF70B
:103DE000CDFB194D194B80222B6004236B600023FF
:103DF0002800E766BC62AB60EB602A616B61AB6177
:103E0000EB612B6200F008FE002801D0FEF7B6FB44
:103E1000012200210B202567AC6200F0B7FD0B20CA
:103E200000F0DEFD1C200122002100F0AFFD1C206F
:103E300000F0D6FD11B0F0BD00440040001002407B
:103E40001416002080000240CC1500206C000240B7
:103E50000B4B026810B504009A420FD1A020094A0A
:103E60000949936BC0050B4093630C2101F096F94F
:103E7000E06E00F015FE1C2000F0BEFD10BDC04637
:103E80000044004000100240FFFFFDFF10B5044B4E
:103E90001860FEF7E5FAFFF71FFF002010BDC046CF
:103EA000700300208022094B9202996A10B50A43E0
:103EB0009A629A6A064907480A409A62FFF7C8FF61
:103EC0000B2000F099FD002010BDC04600100240FC
:103ED000FFFFFDFF5C16002010B50A00010002483C
:103EE00002F072FF002010BD5C16002013B5802187
:103EF000104B114C1860019A89032000009103F0C7
:103F000047FC802223685202D9691142FCD18022E9
:103F1000D203D9691142FCD0996820000A439A6003
:103F200003F07AFC10222000044903F0FBFB002080
:103F300016BDC0466C0300205C160020E016002071
:103F400010B5024B00201B68984710BD700300207D
:103F50000B4B70B51B6804000A4D002B0AD0020001
:103F600001005A325831128809882800891A89B20A
:103F70000022984729001022200003F0D3FB70BDD7
:103F80006C030020E0160020074B70B51B6804008E
:103F9000064D002B02D0002228009847290010224D
:103FA000200003F0BFFB70BD6C030020E016002072
:103FB0000D4885460D480E490E4A002302E0D458AC
:103FC000C4500433C4188C42F9D30B4A0B4C002361
:103FD00001E013600432A242FBD300F079F90BF048
:103FE0002DF8FEF7A1FAFEE70020002000000020D7
:103FF0009001002030FE00089001002040190020B0
:10400000FEE70000F0B50026012591B0404C0A966D
:10401000E36AA0272B43E362E36AFF052B4000938A
:10402000009B3C4B3800079303230993802306A988
:104030001B020693089600F0F7FF0222E36A06A926
:104040001343E362E36A344813400193019B08235E
:1040500007960693089600F0E7FF02220421E36A20
:104060002D481343E362E36A06911340029306A9C5
:10407000029B0896079500F0D7FF320004212648DE
:1040800001F00CF9E36A02222B43E362E36A380091
:104090002B400393039BE36A0BA92B43E362E36A80
:1040A0002B400493049BE36A2B43E362E36A0C9284
:1040B0002B400593059B03230E937D330D920B93A9
:1040C0000F9600F0B1FF402338000BA90B930F9619
:1040D00000F0AAFF202338000BA90B930F9600F0E5
:1040E000A3FFE36A38002B43E362E36A10242B400A
:1040F0000B9306A90B9B07950896069400F094FF76
:104100002A002100380001F0C9F811B0F0BDC04606
:10411000001002400000111000040050F0B5002211
:1041200087B004211548A02401F0B8F801238027A6
:1041300040262025E4052000029301A9DB18039303
:10414000019700F071FF200001A9019600F06CFFBB
:10415000200001A9019500F067FF3900200000222E
:1041600001F09CF831002000002201F097F80022B5
:104170002900200001F092F807B0F0BD00040050C3
:1041800070B50400094D0A49280000F0E2FD28003E
:104190002268002100F0D6FD00220720110000F067
:1041A000F5FB072000F01CFC70BDC0463017002056
:1041B0000F00000605207047F0B5142787B03A00BD
:1041C000002101A80AF067FF0220184A0124D16AE1
:1041D00000260143D162D36A154D03400093009B32
:1041E00003230830049302940396FEF7EBFD2800A6
:1041F00001A9019400F018FF32002100280001F00D
:104200004DF83800FEF7DEFD0323280001A90293D4
:10421000019400F009FF32002100280001F03EF86F
:104220000A20FEF7CFFD07B0F0BDC04600100240E7
:104230000004005010B50821024801F029F80128B7
:10424000F9D010BD00040050020010B5002805D1BF
:10425000A0201021C00501F021F810BD0122F7E7D0
:10426000020010B5002804D10421034801F016F81B
:1042700010BD0122F8E7C04600040050002070473E
:1042800010B503F051FB10BD1FB50E246B466C44F6
:10429000D880063301222100180003F001FB20889A
:1042A00004B010BD10B5A024E405002210212000A8
:1042B00000F0F4FFC020FFF7E7FF0020FFF7E4FF66
:1042C00001221021200000F0E9FFFFF7B3FF10BD2D
:1042D000704700000223084A10B5116803200B4301
:1042E0001360FEF769FD041E03D1FEF7DDFB20001D
:1042F00010BD0124FBE7C04600200240034A044BE6
:1043000011681B785B1813607047C046381700208F
:1043100050000020014B18687047C0465000F81F3D
:10432000014B18687047C0465400F81F014B1868CD
:104330007047C0466400F81F084B13B504000849D5
:104340001868FBF707FF44430194019B002B00D141
:1043500013BD019B013B0193F7E7C0464C000020D1
:1043600040420F000321036870B59A6804000A40B8
:10437000012A04D11968114201D0002070BD99684A
:10438000134A114208D010230120626D1343636564
:10439000A36D0343A365F1E701259A6828002A432A
:1043A0009A60FFF7C9FFFEF709FD060023681B6846
:1043B0002B42E2D1FEF702FD801B0A28F6D910231A
:1043C000626D012013436365A36D1D43A565D5E7A9
:1043D000170000800321036870B504009868084046
:1043E000012801D0002070BD1A680242FAD00522CF
:1043F0009D681540012D19D19868033A02439A60CF
:104400001960FEF7DBFC060023689B682B42E9D0AD
:10441000FEF7D4FC801B0A28F6D91023626D012018
:1044200013436365A36D1D43A565DCE71023626D2F
:1044300013436365A36D0343A365D4E704220368B4
:1044400070B599680400114201D1002070BD9968CF
:10445000114206D09A68920703D4102299680A4341
:104460009A60FEF7ABFC0426050023689B68334284
:10447000EBD0FEF7A3FC401B0A28F6D9102301203D
:10448000626D13436365A36D0343A365DEE700001C
:1044900070B504000120002C1BD0636D002B06D1E9
:1044A00022005032A36520001370FDF73BFF636DBF
:1044B000DB0606D4236804229968080010401142E4
:1044C00008D01023626D012013436365002350342C
:1044D000237070BD626D5549114002220A43626526
:1044E000032299681140524A012902D11D680D42E8
:1044F00019D180266168F6054D006D08B54203D0DC
:1045000080252D06A94276D11D69AD00AD081D613B
:104510001D69294319611825D968A943D960D9684B
:10452000A5682943D9601168424D29401160616B2B
:104530001568490629431160802299685205114285
:1045400002D199680A439A60DA683B490A402169B6
:10455000DA60DD68E268022900D10420266B611C64
:1045600032432A43A569C97FAD032A43E569ED03B8
:104570002A434D032A4325002C352D786D002A430C
:104580000243C220DA60626AFF30824204D0A56A28
:10459000D8682A430243DA60A21CD27F012A06D1DE
:1045A000002934D18022D96852020A43DA60E16BD3
:1045B0001A69012933D12148656C02401A61226CC5
:1045C00018692A43A56C2A4302431A611A691143E8
:1045D000196107215A6900208A435A615A69A16BFF
:1045E0000A435A610322A065636D93431A000123B5
:1045F000134363656DE71D69114EAD00AD081D6184
:1046000015683540156015682943116083E720213E
:10461000606D01436165A16D0A43A265C7E7012191
:104620000A42D6D01A698A431A61D2E7FDFEFFFF1B
:1046300008270140FFFFFFFD1902FEFF03FCFFFFFB
:10464000FFFFC3FF70B504000125002811D002232D
:10465000426D13434365FFF7F1FE051E37D120007D
:10466000FFF7B8FE0500012805D1012500235034CD
:104670002370280070BD01236365236815495A68BB
:1046800020000A405A60144A14491A609A680A4085
:104690009A60DA6812490A40DA601A6911490A40D8
:1046A00007211A615A698A435A611A6A0E490A40F7
:1046B0007F211A62B4331A688A431A601A688A43DF
:1046C0001A60FDF73FFE0023A3656365CEE701286E
:1046D000CBD0D2E760F7FFFF9F080000FFFFFFEF9E
:1046E00000023E8302FCFF3F00F000F0036870B55B
:1046F0009B68040002205B071AD4250050352B78F4
:10470000012B15D001232B70E369012B11D1636DAF
:104710000B4A00201A4080235B0013431C22636570
:10472000A065287023681A609968183A0A439A604D
:1047300070BD2000FFF716FE0028E8D0F8E7C0465D
:10474000FEF0FFFF70B506005036337804000220FB
:10475000012B12D0012520003570FFF76FFE0028D5
:1047600009D12000FFF736FE002804D1636D034A0B
:1047700013401D4365650023337070BDFEFEFFFFCF
:10478000F8B5466904000D00082E0DD0036801201D
:10479000DB680C26034207D02023626D503413439C
:1047A000636000232370F8BDFEF708FB0700236851
:1047B0001A68164224D08022616D92000A43626515
:1047C000C022D9681201114213D1621CD27F002A83
:1047D0000FD11A6812070CD59A68520723D40C21FE
:1047E0005A688A435A60626D1349114001220A4394
:1047F00062650020A2698242D5D10C221A60D2E7FC
:104800006A1CD5D0002D08D10423626D50341343A7
:104810006360002303202370C5E7FEF7CFFAC01BB7
:10482000A842C4D9F0E72022616D0A4362650122E3
:10483000A16D0A43A265DCE7FEFEFFFF0368186C6A
:1048400070470000F8B504005034227803000D00D2
:104850000220012A0BD0013820701A68916849079C
:1048600006D52022596D0A435A6500232370F8BDEE
:1048700080232868194E6F684103DB02490B03400F
:10488000B74219D0906A01439162002B08D080236F
:10489000134A1B0411680A200B431360FFF74CFDF9
:1048A0002B689B0305D580230D4ADB0311680B435E
:1048B000136000202070DAE7956A8D439562002B23
:1048C00004D0074A074913680B4013608303F0D5EF
:1048D000034A054913680B40EAE7C046011000008F
:1048E00008270140FFFF7FFFFFFFBFFFF8B505006E
:1048F00050352B7804000220012B44D001230322E1
:104900002B70236898681040012809D11A68024268
:1049100006D02023626D1343636500232B7032E0C1
:10492000626D1949114002220A4303216265DE6863
:10493000DA688A43DA608022996812060A439A602C
:10494000FEF73CFA070023689A68002A0CDB032272
:10495000D96816400E43DE60636D002093431A0051
:10496000012313436365D8E7FEF728FAC01B0A2822
:10497000E9D91222636D012093431A0010231343D7
:10498000636500232B70F8BDFDFEFFFF30B5FF25EA
:1049900003242A000440E400A24089012940D243B4
:1049A000A140C3B200280ADBC0240B4B8008800062
:1049B000C018A40003591A401143015130BD0F2003
:1049C0000340083B05489B089B001B18D869024020
:1049D0001143D961F2E7C04600E100E000ED00E0DC
:1049E000002805DB1F2318401E3B8340014A13604B
:1049F0007047C04600E100E0002809DB1F23184093
:104A00001E3B8340034AD367BFF34F8FBFF36F8FC3
:104A10007047C04604E100E0F8B504000120002C16
:104A200035D025681A4B1421E818FBF793FB194B76
:104A3000800023640223A21D6064D3772E68164B86
:104A4000A1681E40E36827690B433B4367693B430A
:104A5000A7693B43E7693B43276A3B4333432B60EA
:104A60008023DB0199420CD01C2528400D3D854058
:104A70000A490B68AB430B6063680D6883402B43A6
:104A80000B6000200123E0630534D377E077F8BDA5
:104A9000F8FFFDBF000002400F80FFFFA8000240AA
:104AA00070B5012504002800002C21D026681421AF
:104AB0003368AB4333600F4BF018FBF74BFB1C2103
:104AC000830063640B4000209D400D3999400A4AE1
:104AD000A31D226430605560084D2A688A432A600D
:104AE000E06220636063A063E0630534D877E07719
:104AF00070BDC046F8FFFDBF00000240A8000240A4
:104B0000F7B5451D0193EB7F04000220012B29D04E
:104B10000123A71DEB77FB7F00269C466046DBB296
:104B200001282AD10130F8772068E663676C0568B0
:104B30001C363E409D43B3400560256C6B60019B75
:104B40004360A368102B0ED18260C160236B002BE1
:104B50000CD00E2302681343036001230268134341
:104B600003600020FEBD8160C260EFE7042203689D
:104B70009343036002680A23EDE70220EE77F1E732
:104B800030B5851DEB7F441D022B05D00423C36384
:104B900000230120E37730BD0E2103681A688A43A1
:104BA0001A600122196891431960436C016C1C2042
:104BB00003401000984048600020EA77E077EAE779
:104BC00070B5841DE37F022B04D00423C363033B31
:104BD000180070BD0E210368456C1A688A431A607C
:104BE00001221968914319601C232B4015009D4038
:104BF000016C431D4D60E2770024DC77826B13006B
:104C0000A242E5D090472300E2E7F8B51C22042732
:104C1000466C016C32403E0096400D6803681C688B
:104C200035420DD03C420BD01A68920602D41A6865
:104C3000BA431A60036B4E60002B19D0984717E0F7
:104C400002273E009640354213D03C4211D01A68EC
:104C5000920606D40A241A68A2431A600122831D10
:104C6000DA770022431D4E60DA77C36A9342E5D1BA
:104C7000F8BD0826370097403D42F9D03442F7D0BE
:104C80000E251C68AC431C6001231C009440821D4F
:104C90004C60C363D3770022431DDA77436BE5E7AB
:104CA000030070B50120002B3AD0002938D01F2214
:104CB00005000C6822401C609540204BA60120D5C1
:104CC0008E6806422DD0986828439860B0072BD58F
:104CD000D8682843D860C0202600C0040640864219
:104CE0000FD103263440A4000C36A6401448920885
:104CF000920012189068B0430600C868A040304384
:104D000090604A68D10712D51968294310001960CC
:104D1000022108400A420DD000205A6815435D6008
:104D200070BD9868A843D0E7D868A843D2E719684F
:104D3000A943EBE75A68AA435A60F1E7000401402F
:104D4000000001400300081E01D15A607047012095
:104D5000FCE703000120002B01D000201960704700
:104D60001F22036810B51A4001239340044A516979
:104D70000B4204D053614368002B00D0984710BD0C
:104D8000000401401F2302681A401E3B9340014A61
:104D90005361704700040140284A8021906949000E
:104DA000030030B50B40084205D002232448446973
:104DB000234343610B00802091698000014205D0AC
:104DC00001211F4C0343656929436161802091697A
:104DD000C000014205D00821194C034365692943ED
:104DE0006161802091690001014205D00421144CC9
:104DF0000343656929436161802091698001014213
:104E000005D010210E4C0343656929436161916906
:104E1000890305D520200A4C034361690143616180
:104E2000802091694002014205D04021044C034397
:104E3000656929436161936130BDC046002002402D
:104E40003C17002070B50400FDF7B8FF01260500EF
:104E5000194A13009169314221D102219069084217
:104E600000D091619A69D20515D49A69920512D43D
:104E70009A6952050FD49A6912050CD49A69920462
:104E800009D499698022080092021040114202D18F
:104E90009B69DB0308D5FFF77FFF012004E0611C5D
:104EA000D8D0002C01D1032070BDFDF787FF401B37
:104EB000A042CDD9F7E7C0460020024070B50400FB
:104EC00011480E00FFF7BEFF002811D10F4B5861AB
:104ED000002C0DD0A3B2002B0AD01C000C4D002ECC
:104EE0000AD0A8680443A4B2E04300040443AC60C1
:104EF0000548FFF7A7FF70BDAB68A3439BB2DA4339
:104F000012041343AB60F3E750C300003C170020CA
:104F10000000F81FF7B53F4D04002B7C0220012B49
:104F20000CD0013828742368034208D06168A06857
:104F3000FFF7C4FF002802D000232B74FEBD2368B6
:104F40009B0718D5237B344F344801933B683E6858
:104F5000FFF778FF0028EFD180235B001E40019B04
:104F600068611E43F3431B041E432C483E60FFF759
:104F700069FF0028E0D123685B0718D5A37B264F83
:104F800026487E680193FFF75DFF0028D4D1244BAB
:104F9000019A1E4070231A401643F3431B041E431C
:104FA00068611E487E60FFF74DFF0028C4D123686A
:104FB0001B0716D5637B184F18487E680193FFF7CF
:104FC00041FF0028B8D1174B68611E40019B134870
:104FD0001E43F3431B041E437E60FFF733FF00288C
:104FE000AAD12368DB06A7D50B4F0C48E47B7E686B
:104FF000FFF728FF00289FD17604760CE4033443A2
:10500000E6433604344368617C600448FFF71AFFC6
:1050100092E7C0463C1700200000F81F50C3000074
:105020008FFF0000F0FF0000554AF0B58218541EB3
:10503000A241002385B0053203920A681400DC40C7
:1050400001D105B0F0BD01273C0015009C40254072
:105050000095224200D191E04A68944610226546AC
:10506000954302950D3A5D00AA40D2430192029AFF
:10507000013ABA420FD88668019A1640CA68AA4017
:10508000324382604268A2431400624612093A40E9
:105090009A4022434260C468019A14408A68AA4038
:1050A0002243C260029A022A0DD107240F271C4016
:1050B000A400A740DA0892008218166ABE430F695E
:1050C000A7403E4316620468019A0326224014005A
:1050D00062463240AA40144362460460D2004DD575
:1050E0000125284C0F27626B2A431D003540AD0077
:1050F000AF406263244A9C08A400A418A268BA4383
:10510000A0270192FF050022B8420CD01F4F0132A8
:10511000B84208D01E4F0132B84204D01D4F3200B1
:10512000B84200D0039AAA406746019D2A43A26074
:10513000194A009C1668009DE4433543FF0301D4DF
:1051400035002540674615605668009D3543BF030E
:1051500001D435002540674655609668009D35436B
:10516000FF0201D43500254067469560D568009E52
:105170002E43BF0201D425402E00D66001335CE7E8
:1051800000E4FFAF001002400000014000040050A6
:1051900000080050000C005000040140F0B5364AF1
:1051A00085B082180191511E8A4100230532039275
:1051B000019ADA4001D105B0F0BD01273A009A40CA
:1051C000019C009214400099019A0A4251D02B4947
:1051D0009A089200521891681D000E0003210D409C
:1051E000AD000C31A940029131400E00A021C9054B
:1051F0008C46002160450DD021498C463900604520
:1052000008D0204F4918B84204D01F4F0131B8428E
:1052100000D00399A940B14210D11C490D68A543A3
:105220000D604D68A5434D608D68A5438D60CD68C8
:10523000A543CD609168029CA143916003215C006D
:10524000A14007240F261C40A400A6400268009C31
:105250000A430260DA0892008218156AB5431562A3
:10526000C2688A43C2604268A243426082688A433D
:10527000826001339CE7C04600E4FFAF00000140BC
:105280000004005000080050000C005000040140D1
:1052900000690840411E8841C0B27047002A01D011
:1052A000816170478162FCE703689A69920701D5C2
:1052B00000229A6201229969114202D199690A4336
:1052C0009A61704730B5039C006823431204890536
:1052D0001A43890D054B45680A43640D1C4352006F
:1052E000A54352082A43426030BDC046FF63FF0316
:1052F000F7B5150002680E00916910230F00040035
:105300001F40002019420ED02027D3610090019049
:1053100023689A693A4264D1019A002A32D004275C
:105320000120009B1F438021236849009A690A429B
:1053300002D00120D96107438021C9000A4203D06D
:105340000820D96107430738802189000A424DD0DF
:105350000222D96117432000FFF7A6FF22682549E2
:1053600053680B40536023002022606C4133074395
:1053700067641A7022000023423240341370012007
:10538000237035E0721CC4D0FDF718FD401BB042FD
:1053900001D8002EBCD1220023684232586811780F
:1053A000CAB2802194469A6909020A420CD080222E
:1053B000D201104208D16146202905D059680A431C
:1053C0005A60FDF7FBFC050023689B693B429FD1B7
:1053D000FDF7F4FC401B1928F6D90123009701932F
:1053E00096E7019A002A9AD1DF6198E70028B2D1A6
:1053F000FEBDC04600E800FEF8B504000D00160032
:10540000022723689B693B4201D00020F8BD32008F
:1054100029002000FFF76CFF002818D16B1CF0D08A
:10542000FDF7CCFC801BA84201D8002DE9D12368F0
:105430009B691A003A403B42E3D12021636C0B4345
:10544000636423004034413319705A702270012084
:10545000DCE7F8B504000E001700202523689B69DF
:105460002B4201D00020F8BD3A0031002000FFF7A8
:105470003FFF002815D1FDF7A1FCC01BB04201D8A9
:10548000002EEBD123689B691A002A402B42E5D1FC
:10549000636C2B4363642300403441331D705A70A6
:1054A00022700120DFE7F8B504000D0017001E0090
:1054B000226893692B405B1B59424B41BB4201D090
:1054C00000201FE0731CF4D0FDF778FC069BC01A87
:1054D000B04201D8002EEBD123689B692B405B1BA7
:1054E0005A425341BB42E3D12022636C0120134353
:1054F0006364230041331A70220000234232403497
:1055000013702370F8BD000070B504000120002C5A
:105510003FD0250041352B78DAB2002B05D123008E
:10552000403320001A70FDF7E7FA242301212B7085
:105530002368E0681A68A6688A431A6061681A4A94
:105540000A401A619968194A11409960012821D1CD
:105550008021090231439960586815490143596017
:10556000D96800200A40DA60616922690A43A169AA
:1055700009020A43DA60216AE2690A431A600122D9
:1055800019680A431A60202360642B702063423438
:10559000207070BD84210902314399600228DBD15B
:1055A000802109015960D7E7FFFFFFF0FF7FFFFF70
:1055B00000800002F0B589B004930EAB039204CBD7
:1055C00004001B88059206930300413307931B7860
:1055D0000F000220109E202B08D1002A02D0069B2B
:1055E000002B05D180239B006364012009B0F0BD2E
:1055F000230040331A780220012AF7D001221A70C2
:10560000FDF7DCFB8021050000901923012220001A
:105610000902FFF748FF0028E7D12123079A390044
:1056200013702300423307934023079A1370059B9E
:1056300060646362069B606363856B461A7C4A4BB9
:105640002000009380235B04FFF73CFE2A0031001A
:105650002000FFF7D1FE002826D1049A2368012AF2
:1056600016D16A46127B80219A6220003300002204
:105670000095FFF718FF002816D1638DFF2B17D870
:105680008023628D9B0492B22285D2B2009014E0F6
:10569000039A3100120A9A6220002A00FFF7ACFE3A
:1056A000002801D12368DCE70023403423709CE705
:1056B000FF22802322855B04009039002000FFF741
:1056C00001FE2A0031002000FFF796FE002800D0DE
:1056D0008BE7636A22681978013391626362638D94
:1056E000228D013B9BB26385013A638D92B2228584
:1056F000002B17D0002A15D13300802120000095FF
:10570000FFF7D1FE002800D06FE7638DFF2B23D970
:10571000FF2323858023FF2200905B0439002000B3
:10572000FFF7D0FD638D002BCBD12A003100200084
:10573000FFF78FFE002800D057E7202123680B4D8C
:10574000D9615A682A405A60230041331970079B77
:1057500040341870207049E78023628D9B0492B218
:105760002285D2B20090D9E70020008000E800FE38
:10577000F0B589B004930EAB039204CB04001B88F0
:10578000059206930300413307931B780F00022014
:10579000109E202B08D1002A02D0069B002B05D199
:1057A00080239B006364012009B0F0BD23004033D7
:1057B0001A780220012AF7D001221A70FDF7FEFAAA
:1057C0008021192300900500012220000902FFF723
:1057D0006AFE031EE7D1222207990A702200423294
:1057E0000792402207990A70059A60646262069ADD
:1057F0004D4962856A466063127C20000091390041
:10580000FFF760FD2A0031002000FFF7F5FD0028BA
:1058100027D1049A2368012A17D16A46127B4021B6
:105820009A622000330000220095FFF73CFE00281A
:1058300017D1628D3D4BFF2A17D8628D92B2228517
:1058400000938023D2B29B0414E0039A3100120A21
:105850009A6220002A00FFF7CFFD002801D12368BB
:10586000DBE70023403423709DE7FF22228500936D
:1058700080235B0439002000FFF724FD3300002261
:10588000042120000095FFF70EFE002800D08AE7D3
:105890002368626A5B6A1370636A228D01336362F4
:1058A000638D013A013B9BB26385638D92B2228581
:1058B000002B17D0002A15D133008021200000953D
:1058C000FFF7F1FD002800D06DE7638DFF2B23D992
:1058D000FF2323858023FF2200905B0439002000F2
:1058E000FFF7F0FC638D002BC8D12A0031002000A7
:1058F000FFF7AFFD002800D055E7202123680C4DAD
:10590000D9615A682A405A60230041331970079BB5
:1059100040341870207047E78023628D9B0492B258
:105920002285D2B20090D9E70020008000240080B8
:1059300000E800FE1021024A13688B431360704791
:1059400000700040174BF0B5174A1E680500802014
:10595000176A34000122800004403A40064205D014
:10596000002A03D01868114E3040186003261868CA
:10597000B04328430E4D186028690136B0432861B2
:1059800001290BD130BF002C06D0002A04D0802280
:10599000196892000A431A60C046F0BD40BF20BF9C
:1059A00020BFF0E70070004000000140FFFDFFFF56
:1059B00000ED00E0104B10B5104A1C6814401C604C
:1059C00003241A68A243024304201A600C4A146993
:1059D0002043106101290AD130BF0420116981439D
:1059E00011618022196892000A431A6010BD40BFFD
:1059F00020BF20BFF1E7C04600700040FFFDFFFF61
:105A000000ED00E07047000070B58025044C6D0289
:105A100063692B4202D0FFF7F5FF656170BDC04698
:105A2000000401408023034ADB0011680B4313602C
:105A30007047C046007000408023034A9B001168F5
:105A40000B4313607047C046007000400C221D4B92
:105A500070B5DC682240082A31D00C2A09D0042A0B
:105A600025D11868184BC006C0171840174BC0182E
:105A700070BDA2021648120F805C80222402D968F1
:105A8000A40F52020134114209D0124A002300210E
:105A9000FAF734FD22000023FAF710FDE8E71A6850
:105AA00010231A4201D00C4AF0E7084AEEE78020A2
:105AB0005B6800021B045B0F01339840D8E7054880
:105AC000D6E7C0460010024000E548FF0024F4007D
:105AD00048F4000800127A0000093D00F0B5050006
